{
  "_format": "hh-sol-artifact-1",
  "contractName": "Voting",
  "sourceName": "contracts/Voting.sol",
  "abi": [
    {
      "inputs": [
        {
          "internalType": "string[]",
          "name": "_candidateNames",
          "type": "string[]"
        },
        {
          "internalType": "uint256",
          "name": "_durationInMinutes",
          "type": "uint256"
        }
      ],
      "stateMutability": "nonpayable",
      "type": "constructor"
    },
    {
      "inputs": [
        {
          "internalType": "string",
          "name": "_name",
          "type": "string"
        }
      ],
      "name": "addCandidate",
      "outputs": [],
      "stateMutability": "nonpayable",
      "type": "function"
    },
    {
      "inputs": [
        {
          "internalType": "uint256",
          "name": "",
          "type": "uint256"
        }
      ],
      "name": "candidates",
      "outputs": [
        {
          "internalType": "string",
          "name": "name",
          "type": "string"
        },
        {
          "internalType": "uint256",
          "name": "voteCount",
          "type": "uint256"
        }
      ],
      "stateMutability": "view",
      "type": "function"
    },
    {
      "inputs": [
        {
          "internalType": "string",
          "name": "_name",
          "type": "string"
        }
      ],
      "name": "deleteCandidate",
      "outputs": [],
      "stateMutability": "nonpayable",
      "type": "function"
    },
    {
      "inputs": [],
      "name": "getAllVotesOfCandiates",
      "outputs": [
        {
          "components": [
            {
              "internalType": "string",
              "name": "name",
              "type": "string"
            },
            {
              "internalType": "uint256",
              "name": "voteCount",
              "type": "uint256"
            }
          ],
          "internalType": "struct Voting.Candidate[]",
          "name": "",
          "type": "tuple[]"
        }
      ],
      "stateMutability": "view",
      "type": "function"
    },
    {
      "inputs": [],
      "name": "getRemainingTime",
      "outputs": [
        {
          "internalType": "uint256",
          "name": "",
          "type": "uint256"
        }
      ],
      "stateMutability": "view",
      "type": "function"
    },
    {
      "inputs": [],
      "name": "getVotingStatus",
      "outputs": [
        {
          "internalType": "bool",
          "name": "",
          "type": "bool"
        }
      ],
      "stateMutability": "view",
      "type": "function"
    },
    {
      "inputs": [
        {
          "internalType": "uint256",
          "name": "_candidateIndex",
          "type": "uint256"
        }
      ],
      "name": "vote",
      "outputs": [],
      "stateMutability": "nonpayable",
      "type": "function"
    },
    {
      "inputs": [
        {
          "internalType": "address",
          "name": "",
          "type": "address"
        }
      ],
      "name": "voters",
      "outputs": [
        {
          "internalType": "bool",
          "name": "",
          "type": "bool"
        }
      ],
      "stateMutability": "view",
      "type": "function"
    },
    {
      "inputs": [],
      "name": "votingEnd",
      "outputs": [
        {
          "internalType": "uint256",
          "name": "",
          "type": "uint256"
        }
      ],
      "stateMutability": "view",
      "type": "function"
    },
    {
      "inputs": [],
      "name": "votingStart",
      "outputs": [
        {
          "internalType": "uint256",
          "name": "",
          "type": "uint256"
        }
      ],
      "stateMutability": "view",
      "type": "function"
    }
  ],
  "bytecode": "0x60806040523480156200001157600080fd5b5060405162001b6f38038062001b6f8339818101604052810190620000379190620004da565b60005b8251811015620000e3576000604051806040016040528085848151811062000067576200006662000540565b5b60200260200101518152602001600081525090806001815401808255809150506001900390600052602060002090600202016000909190919091506000820151816000019080519060200190620000c092919062000156565b506020820151816001015550508080620000da906200059e565b9150506200003a565b5033600160006101000a81548173ffffffffffffffffffffffffffffffffffffffff021916908373ffffffffffffffffffffffffffffffffffffffff16021790555042600381905550603c816200013b9190620005ec565b426200014891906200064d565b60048190555050506200070f565b8280546200016490620006d9565b90600052602060002090601f016020900481019282620001885760008555620001d4565b82601f10620001a357805160ff1916838001178555620001d4565b82800160010185558215620001d4579182015b82811115620001d3578251825591602001919060010190620001b6565b5b509050620001e39190620001e7565b5090565b5b8082111562000202576000816000905550600101620001e8565b5090565b6000604051905090565b600080fd5b600080fd5b600080fd5b6000601f19601f8301169050919050565b7f4e487b7100000000000000000000000000000000000000000000000000000000600052604160045260246000fd5b6200026a826200021f565b810181811067ffffffffffffffff821117156200028c576200028b62000230565b5b80604052505050565b6000620002a162000206565b9050620002af82826200025f565b919050565b600067ffffffffffffffff821115620002d257620002d162000230565b5b602082029050602081019050919050565b600080fd5b600080fd5b600067ffffffffffffffff8211156200030b576200030a62000230565b5b62000316826200021f565b9050602081019050919050565b60005b838110156200034357808201518184015260208101905062000326565b8381111562000353576000848401525b50505050565b6000620003706200036a84620002ed565b62000295565b9050828152602081018484840111156200038f576200038e620002e8565b5b6200039c84828562000323565b509392505050565b600082601f830112620003bc57620003bb6200021a565b5b8151620003ce84826020860162000359565b91505092915050565b6000620003ee620003e884620002b4565b62000295565b90508083825260208201905060208402830185811115620004145762000413620002e3565b5b835b818110156200046257805167ffffffffffffffff8111156200043d576200043c6200021a565b5b8086016200044c8982620003a4565b8552602085019450505060208101905062000416565b5050509392505050565b600082601f8301126200048457620004836200021a565b5b815162000496848260208601620003d7565b91505092915050565b6000819050919050565b620004b4816200049f565b8114620004c057600080fd5b50565b600081519050620004d481620004a9565b92915050565b60008060408385031215620004f457620004f362000210565b5b600083015167ffffffffffffffff81111562000515576200051462000215565b5b62000523858286016200046c565b92505060206200053685828601620004c3565b9150509250929050565b7f4e487b7100000000000000000000000000000000000000000000000000000000600052603260045260246000fd5b7f4e487b7100000000000000000000000000000000000000000000000000000000600052601160045260246000fd5b6000620005ab826200049f565b91507fffffffffffffffffffffffffffffffffffffffffffffffffffffffffffffffff821415620005e157620005e06200056f565b5b600182019050919050565b6000620005f9826200049f565b915062000606836200049f565b9250817fffffffffffffffffffffffffffffffffffffffffffffffffffffffffffffffff04831182151516156200064257620006416200056f565b5b828202905092915050565b60006200065a826200049f565b915062000667836200049f565b9250827fffffffffffffffffffffffffffffffffffffffffffffffffffffffffffffffff038211156200069f576200069e6200056f565b5b828201905092915050565b7f4e487b7100000000000000000000000000000000000000000000000000000000600052602260045260246000fd5b60006002820490506001821680620006f257607f821691505b60208210811415620007095762000708620006aa565b5b50919050565b611450806200071f6000396000f3fe608060405234801561001057600080fd5b506004361061009e5760003560e01c8063581c281c11610066578063581c281c1461014857806385a386351461016657806388feb51614610184578063a3ec138d146101a0578063efb98bcf146101d05761009e565b80630121b93f146100a3578063101158af146100bf5780633477ee2e146100dd578063462e91ec1461010e5780634d6bda5f1461012a575b600080fd5b6100bd60048036038101906100b89190610ad2565b6101ee565b005b6100c7610358565b6040516100d49190610b0e565b60405180910390f35b6100f760048036038101906100f29190610ad2565b61035e565b604051610105929190610bc2565b60405180910390f35b61012860048036038101906101239190610d27565b61041a565b005b6101326104e1565b60405161013f9190610ec8565b60405180910390f35b6101506105dc565b60405161015d9190610f05565b60405180910390f35b61016e6105f6565b60405161017b9190610b0e565b60405180910390f35b61019e60048036038101906101999190610d27565b6105fc565b005b6101ba60048036038101906101b59190610f7e565b6107a1565b6040516101c79190610f05565b60405180910390f35b6101d86107c1565b6040516101e59190610b0e565b60405180910390f35b600260003373ffffffffffffffffffffffffffffffffffffffff1673ffffffffffffffffffffffffffffffffffffffff16815260200190815260200160002060009054906101000a900460ff161561027b576040517f08c379a000000000000000000000000000000000000000000000000000000000815260040161027290610ff7565b60405180910390fd5b60008054905081106102c2576040517f08c379a00000000000000000000000000000000000000000000000000000000081526004016102b990611063565b60405180910390fd5b600081815481106102d6576102d5611083565b5b906000526020600020906002020160010160008154809291906102f8906110e1565b91905055506001600260003373ffffffffffffffffffffffffffffffffffffffff1673ffffffffffffffffffffffffffffffffffffffff16815260200190815260200160002060006101000a81548160ff02191690831515021790555050565b60035481565b6000818154811061036e57600080fd5b906000526020600020906002020160009150905080600001805461039190611159565b80601f01602080910402602001604051908101604052809291908181526020018280546103bd90611159565b801561040a5780601f106103df5761010080835404028352916020019161040a565b820191906000526020600020905b8154815290600101906020018083116103ed57829003601f168201915b5050505050908060010154905082565b600160009054906101000a900473ffffffffffffffffffffffffffffffffffffffff1673ffffffffffffffffffffffffffffffffffffffff163373ffffffffffffffffffffffffffffffffffffffff161461047457600080fd5b600060405180604001604052808381526020016000815250908060018154018082558091505060019003906000526020600020906002020160009091909190915060008201518160000190805190602001906104d1929190610918565b5060208201518160010155505050565b60606000805480602002602001604051908101604052809291908181526020016000905b828210156105d3578382906000526020600020906002020160405180604001604052908160008201805461053890611159565b80601f016020809104026020016040519081016040528092919081815260200182805461056490611159565b80156105b15780601f10610586576101008083540402835291602001916105b1565b820191906000526020600020905b81548152906001019060200180831161059457829003601f168201915b5050505050815260200160018201548152505081526020019060010190610505565b50505050905090565b600060035442101580156105f1575060045442105b905090565b60045481565b600160009054906101000a900473ffffffffffffffffffffffffffffffffffffffff1673ffffffffffffffffffffffffffffffffffffffff163373ffffffffffffffffffffffffffffffffffffffff161461065657600080fd5b60006106618261082e565b905060008054905081106106aa576040517f08c379a00000000000000000000000000000000000000000000000000000000081526004016106a1906111d7565b60405180910390fd5b60008190505b60016000805490506106c291906111f7565b8110156107595760006001826106d8919061122b565b815481106106e9576106e8611083565b5b90600052602060002090600202016000828154811061070b5761070a611083565b5b9060005260206000209060020201600082018160000190805461072d90611159565b61073892919061099e565b50600182015481600101559050508080610751906110e1565b9150506106b0565b50600080548061076c5761076b611281565b5b6001900381819060005260206000209060020201600080820160006107919190610a2b565b6001820160009055505090555050565b60026020528060005260406000206000915054906101000a900460ff1681565b6000600354421015610808576040517f08c379a00000000000000000000000000000000000000000000000000000000081526004016107ff906112fc565b60405180910390fd5b600454421061081a576000905061082b565b4260045461082891906111f7565b90505b90565b600080600090505b6000805490508110156108d757826040516020016108549190611358565b604051602081830303815290604052805190602001206000828154811061087e5761087d611083565b5b906000526020600020906002020160000160405160200161089f9190611403565b6040516020818303038152906040528051906020012014156108c45780915050610913565b80806108cf906110e1565b915050610836565b506040517f08c379a000000000000000000000000000000000000000000000000000000000815260040161090a906111d7565b60405180910390fd5b919050565b82805461092490611159565b90600052602060002090601f016020900481019282610946576000855561098d565b82601f1061095f57805160ff191683800117855561098d565b8280016001018555821561098d579182015b8281111561098c578251825591602001919060010190610971565b5b50905061099a9190610a6b565b5090565b8280546109aa90611159565b90600052602060002090601f0160209004810192826109cc5760008555610a1a565b82601f106109dd5780548555610a1a565b82800160010185558215610a1a57600052602060002091601f016020900482015b82811115610a195782548255916001019190600101906109fe565b5b509050610a279190610a6b565b5090565b508054610a3790611159565b6000825580601f10610a495750610a68565b601f016020900490600052602060002090810190610a679190610a6b565b5b50565b5b80821115610a84576000816000905550600101610a6c565b5090565b6000604051905090565b600080fd5b600080fd5b6000819050919050565b610aaf81610a9c565b8114610aba57600080fd5b50565b600081359050610acc81610aa6565b92915050565b600060208284031215610ae857610ae7610a92565b5b6000610af684828501610abd565b91505092915050565b610b0881610a9c565b82525050565b6000602082019050610b236000830184610aff565b92915050565b600081519050919050565b600082825260208201905092915050565b60005b83811015610b63578082015181840152602081019050610b48565b83811115610b72576000848401525b50505050565b6000601f19601f8301169050919050565b6000610b9482610b29565b610b9e8185610b34565b9350610bae818560208601610b45565b610bb781610b78565b840191505092915050565b60006040820190508181036000830152610bdc8185610b89565b9050610beb6020830184610aff565b9392505050565b600080fd5b600080fd5b7f4e487b7100000000000000000000000000000000000000000000000000000000600052604160045260246000fd5b610c3482610b78565b810181811067ffffffffffffffff82111715610c5357610c52610bfc565b5b80604052505050565b6000610c66610a88565b9050610c728282610c2b565b919050565b600067ffffffffffffffff821115610c9257610c91610bfc565b5b610c9b82610b78565b9050602081019050919050565b82818337600083830152505050565b6000610cca610cc584610c77565b610c5c565b905082815260208101848484011115610ce657610ce5610bf7565b5b610cf1848285610ca8565b509392505050565b600082601f830112610d0e57610d0d610bf2565b5b8135610d1e848260208601610cb7565b91505092915050565b600060208284031215610d3d57610d3c610a92565b5b600082013567ffffffffffffffff811115610d5b57610d5a610a97565b5b610d6784828501610cf9565b91505092915050565b600081519050919050565b600082825260208201905092915050565b6000819050602082019050919050565b600082825260208201905092915050565b6000610db882610b29565b610dc28185610d9c565b9350610dd2818560208601610b45565b610ddb81610b78565b840191505092915050565b610def81610a9c565b82525050565b60006040830160008301518482036000860152610e128282610dad565b9150506020830151610e276020860182610de6565b508091505092915050565b6000610e3e8383610df5565b905092915050565b6000602082019050919050565b6000610e5e82610d70565b610e688185610d7b565b935083602082028501610e7a85610d8c565b8060005b85811015610eb65784840389528151610e978582610e32565b9450610ea283610e46565b925060208a01995050600181019050610e7e565b50829750879550505050505092915050565b60006020820190508181036000830152610ee28184610e53565b905092915050565b60008115159050919050565b610eff81610eea565b82525050565b6000602082019050610f1a6000830184610ef6565b92915050565b600073ffffffffffffffffffffffffffffffffffffffff82169050919050565b6000610f4b82610f20565b9050919050565b610f5b81610f40565b8114610f6657600080fd5b50565b600081359050610f7881610f52565b92915050565b600060208284031215610f9457610f93610a92565b5b6000610fa284828501610f69565b91505092915050565b7f596f75206861766520616c726561647920766f7465642e000000000000000000600082015250565b6000610fe1601783610b34565b9150610fec82610fab565b602082019050919050565b6000602082019050818103600083015261101081610fd4565b9050919050565b7f496e76616c69642063616e64696461746520696e6465782e0000000000000000600082015250565b600061104d601883610b34565b915061105882611017565b602082019050919050565b6000602082019050818103600083015261107c81611040565b9050919050565b7f4e487b7100000000000000000000000000000000000000000000000000000000600052603260045260246000fd5b7f4e487b7100000000000000000000000000000000000000000000000000000000600052601160045260246000fd5b60006110ec82610a9c565b91507fffffffffffffffffffffffffffffffffffffffffffffffffffffffffffffffff82141561111f5761111e6110b2565b5b600182019050919050565b7f4e487b7100000000000000000000000000000000000000000000000000000000600052602260045260246000fd5b6000600282049050600182168061117157607f821691505b602082108114156111855761118461112a565b5b50919050565b7f43616e646964617465206e6f7420666f756e642e000000000000000000000000600082015250565b60006111c1601483610b34565b91506111cc8261118b565b602082019050919050565b600060208201905081810360008301526111f0816111b4565b9050919050565b600061120282610a9c565b915061120d83610a9c565b9250828210156112205761121f6110b2565b5b828203905092915050565b600061123682610a9c565b915061124183610a9c565b9250827fffffffffffffffffffffffffffffffffffffffffffffffffffffffffffffffff03821115611276576112756110b2565b5b828201905092915050565b7f4e487b7100000000000000000000000000000000000000000000000000000000600052603160045260246000fd5b7f566f74696e6720686173206e6f742073746172746564207965742e0000000000600082015250565b60006112e6601b83610b34565b91506112f1826112b0565b602082019050919050565b60006020820190508181036000830152611315816112d9565b9050919050565b600081905092915050565b600061133282610b29565b61133c818561131c565b935061134c818560208601610b45565b80840191505092915050565b60006113648284611327565b915081905092915050565b60008190508160005260206000209050919050565b6000815461139181611159565b61139b818661131c565b945060018216600081146113b657600181146113c7576113fa565b60ff198316865281860193506113fa565b6113d08561136f565b60005b838110156113f2578154818901526001820191506020810190506113d3565b838801955050505b50505092915050565b600061140f8284611384565b91508190509291505056fea2646970667358221220b38dc62eec53bb03d4108b0e1b06cbb8e735ea2bb85b7cc587b2ce73aa0d349164736f6c634300080b0033",
  "linkReferences": {},
  "deployedLinkReferences": {}
}