{
  "_format": "hh-sol-artifact-1",
  "contractName": "VotingPolls",
  "sourceName": "contracts/VotingPolls.sol",
  "abi": [
    {
      "inputs": [
        {
          "internalType": "uint256",
          "name": "_durationInMinutes",
          "type": "uint256"
        }
      ],
      "stateMutability": "nonpayable",
      "type": "constructor"
    },
    {
      "inputs": [
        {
          "internalType": "uint256",
          "name": "_pollIndex",
          "type": "uint256"
        },
        {
          "internalType": "string",
          "name": "_name",
          "type": "string"
        }
      ],
      "name": "addCandidate",
      "outputs": [],
      "stateMutability": "nonpayable",
      "type": "function"
    },
    {
      "inputs": [
        {
          "internalType": "string",
          "name": "_name",
          "type": "string"
        },
        {
          "internalType": "string[]",
          "name": "_candidateNames",
          "type": "string[]"
        }
      ],
      "name": "addPoll",
      "outputs": [],
      "stateMutability": "nonpayable",
      "type": "function"
    },
    {
      "inputs": [
        {
          "internalType": "uint256",
          "name": "_pollIndex",
          "type": "uint256"
        },
        {
          "internalType": "string",
          "name": "_name",
          "type": "string"
        }
      ],
      "name": "deleteCandidate",
      "outputs": [],
      "stateMutability": "nonpayable",
      "type": "function"
    },
    {
      "inputs": [
        {
          "internalType": "uint256",
          "name": "_pollIndex",
          "type": "uint256"
        }
      ],
      "name": "deletePoll",
      "outputs": [],
      "stateMutability": "nonpayable",
      "type": "function"
    },
    {
      "inputs": [],
      "name": "getAllPolls",
      "outputs": [
        {
          "components": [
            {
              "internalType": "string",
              "name": "name",
              "type": "string"
            },
            {
              "components": [
                {
                  "internalType": "string",
                  "name": "name",
                  "type": "string"
                },
                {
                  "internalType": "uint256",
                  "name": "voteCount",
                  "type": "uint256"
                }
              ],
              "internalType": "struct VotingPolls.Candidate[]",
              "name": "candidates",
              "type": "tuple[]"
            }
          ],
          "internalType": "struct VotingPolls.Poll[]",
          "name": "",
          "type": "tuple[]"
        }
      ],
      "stateMutability": "view",
      "type": "function"
    },
    {
      "inputs": [
        {
          "internalType": "uint256",
          "name": "_pollIndex",
          "type": "uint256"
        }
      ],
      "name": "getAllVotesOfCandidates",
      "outputs": [
        {
          "components": [
            {
              "internalType": "string",
              "name": "name",
              "type": "string"
            },
            {
              "internalType": "uint256",
              "name": "voteCount",
              "type": "uint256"
            }
          ],
          "internalType": "struct VotingPolls.Candidate[]",
          "name": "",
          "type": "tuple[]"
        }
      ],
      "stateMutability": "view",
      "type": "function"
    },
    {
      "inputs": [],
      "name": "getRemainingTime",
      "outputs": [
        {
          "internalType": "uint256",
          "name": "",
          "type": "uint256"
        }
      ],
      "stateMutability": "view",
      "type": "function"
    },
    {
      "inputs": [],
      "name": "getVotingStatus",
      "outputs": [
        {
          "internalType": "bool",
          "name": "",
          "type": "bool"
        }
      ],
      "stateMutability": "view",
      "type": "function"
    },
    {
      "inputs": [
        {
          "internalType": "uint256",
          "name": "",
          "type": "uint256"
        }
      ],
      "name": "polls",
      "outputs": [
        {
          "internalType": "string",
          "name": "name",
          "type": "string"
        }
      ],
      "stateMutability": "view",
      "type": "function"
    },
    {
      "inputs": [
        {
          "internalType": "uint256",
          "name": "_pollIndex",
          "type": "uint256"
        },
        {
          "internalType": "uint256",
          "name": "_candidateIndex",
          "type": "uint256"
        }
      ],
      "name": "vote",
      "outputs": [],
      "stateMutability": "nonpayable",
      "type": "function"
    },
    {
      "inputs": [
        {
          "internalType": "address",
          "name": "",
          "type": "address"
        },
        {
          "internalType": "uint256",
          "name": "",
          "type": "uint256"
        }
      ],
      "name": "voters",
      "outputs": [
        {
          "internalType": "bool",
          "name": "",
          "type": "bool"
        }
      ],
      "stateMutability": "view",
      "type": "function"
    },
    {
      "inputs": [],
      "name": "votingEnd",
      "outputs": [
        {
          "internalType": "uint256",
          "name": "",
          "type": "uint256"
        }
      ],
      "stateMutability": "view",
      "type": "function"
    },
    {
      "inputs": [],
      "name": "votingStart",
      "outputs": [
        {
          "internalType": "uint256",
          "name": "",
          "type": "uint256"
        }
      ],
      "stateMutability": "view",
      "type": "function"
    }
  ],
  "bytecode": "0x60806040523480156200001157600080fd5b50604051620023b8380380620023b88339818101604052810190620000379190620000e8565b33600160006101000a81548173ffffffffffffffffffffffffffffffffffffffff021916908373ffffffffffffffffffffffffffffffffffffffff16021790555042600381905550603c816200008e919062000149565b426200009b9190620001aa565b6004819055505062000207565b600080fd5b6000819050919050565b620000c281620000ad565b8114620000ce57600080fd5b50565b600081519050620000e281620000b7565b92915050565b600060208284031215620001015762000100620000a8565b5b60006200011184828501620000d1565b91505092915050565b7f4e487b7100000000000000000000000000000000000000000000000000000000600052601160045260246000fd5b60006200015682620000ad565b91506200016383620000ad565b9250817fffffffffffffffffffffffffffffffffffffffffffffffffffffffffffffffff04831182151516156200019f576200019e6200011a565b5b828202905092915050565b6000620001b782620000ad565b9150620001c483620000ad565b9250827fffffffffffffffffffffffffffffffffffffffffffffffffffffffffffffffff03821115620001fc57620001fb6200011a565b5b828201905092915050565b6121a180620002176000396000f3fe608060405234801561001057600080fd5b50600436106100cf5760003560e01c80635c134d661161008c578063ac2f007411610066578063ac2f007414610200578063b384abef14610230578063dbcc78801461024c578063efb98bcf14610268576100cf565b80635c134d661461018257806385a38635146101b25780639d7713b3146101d0576100cf565b8063101158af146100d45780631750a3d0146100f25780631f35b51d1461010e57806332b633fa1461012a57806338d36dd114610148578063581c281c14610164575b600080fd5b6100dc610286565b6040516100e991906113b6565b60405180910390f35b61010c60048036038101906101079190611557565b61028c565b005b610128600480360381019061012391906115b3565b6103be565b005b61013261056a565b60405161013f919061187c565b60405180910390f35b610162600480360381019061015d9190611984565b610756565b005b61016c610897565b6040516101799190611a17565b60405180910390f35b61019c60048036038101906101979190611a90565b6108b1565b6040516101a99190611a17565b60405180910390f35b6101ba6108e0565b6040516101c791906113b6565b60405180910390f35b6101ea60048036038101906101e591906115b3565b6108e6565b6040516101f79190611b56565b60405180910390f35b61021a600480360381019061021591906115b3565b610a4d565b6040516102279190611bc2565b60405180910390f35b61024a60048036038101906102459190611be4565b610b03565b005b61026660048036038101906102619190611557565b610d1d565b005b610270610fba565b60405161027d91906113b6565b60405180910390f35b60035481565b600160009054906101000a900473ffffffffffffffffffffffffffffffffffffffff1673ffffffffffffffffffffffffffffffffffffffff163373ffffffffffffffffffffffffffffffffffffffff16146102e657600080fd5b600080549050821061032d576040517f08c379a000000000000000000000000000000000000000000000000000000000815260040161032490611c70565b60405180910390fd5b6000828154811061034157610340611c90565b5b906000526020600020906002020160010160405180604001604052808381526020016000815250908060018154018082558091505060019003906000526020600020906002020160009091909190915060008201518160000190805190602001906103ad929190611158565b506020820151816001015550505050565b600160009054906101000a900473ffffffffffffffffffffffffffffffffffffffff1673ffffffffffffffffffffffffffffffffffffffff163373ffffffffffffffffffffffffffffffffffffffff161461041857600080fd5b600080549050811061045f576040517f08c379a000000000000000000000000000000000000000000000000000000000815260040161045690611c70565b60405180910390fd5b60008190505b60016000805490506104779190611cee565b81101561051b57600060018261048d9190611d22565b8154811061049e5761049d611c90565b5b9060005260206000209060020201600082815481106104c0576104bf611c90565b5b906000526020600020906002020160008201816000019080546104e290611da7565b6104ed9291906111de565b50600182018160010190805461050492919061126b565b50905050808061051390611dd9565b915050610465565b50600080548061052e5761052d611e22565b5b60019003818190600052602060002090600202016000808201600061055391906112ed565b600182016000610563919061132d565b5050905550565b60606000805480602002602001604051908101604052809291908181526020016000905b8282101561074d57838290600052602060002090600202016040518060400160405290816000820180546105c190611da7565b80601f01602080910402602001604051908101604052809291908181526020018280546105ed90611da7565b801561063a5780601f1061060f5761010080835404028352916020019161063a565b820191906000526020600020905b81548152906001019060200180831161061d57829003601f168201915b5050505050815260200160018201805480602002602001604051908101604052809291908181526020016000905b82821015610736578382906000526020600020906002020160405180604001604052908160008201805461069b90611da7565b80601f01602080910402602001604051908101604052809291908181526020018280546106c790611da7565b80156107145780601f106106e957610100808354040283529160200191610714565b820191906000526020600020905b8154815290600101906020018083116106f757829003601f168201915b5050505050815260200160018201548152505081526020019060010190610668565b50505050815250508152602001906001019061058e565b50505050905090565b600160009054906101000a900473ffffffffffffffffffffffffffffffffffffffff1673ffffffffffffffffffffffffffffffffffffffff163373ffffffffffffffffffffffffffffffffffffffff16146107b057600080fd5b6000806001816001815401808255809150500390600052602060002090600202019050828160000190805190602001906107eb929190611158565b5060005b82518110156108915781600101604051806040016040528085848151811061081a57610819611c90565b5b60200260200101518152602001600081525090806001815401808255809150506001900390600052602060002090600202016000909190919091506000820151816000019080519060200190610871929190611158565b50602082015181600101555050808061088990611dd9565b9150506107ef565b50505050565b600060035442101580156108ac575060045442105b905090565b60026020528160005260406000206020528060005260406000206000915091509054906101000a900460ff1681565b60045481565b6060600080549050821061092f576040517f08c379a000000000000000000000000000000000000000000000000000000000815260040161092690611e9d565b60405180910390fd5b6000828154811061094357610942611c90565b5b9060005260206000209060020201600101805480602002602001604051908101604052809291908181526020016000905b82821015610a4257838290600052602060002090600202016040518060400160405290816000820180546109a790611da7565b80601f01602080910402602001604051908101604052809291908181526020018280546109d390611da7565b8015610a205780601f106109f557610100808354040283529160200191610a20565b820191906000526020600020905b815481529060010190602001808311610a0357829003601f168201915b5050505050815260200160018201548152505081526020019060010190610974565b505050509050919050565b60008181548110610a5d57600080fd5b9060005260206000209060020201600091509050806000018054610a8090611da7565b80601f0160208091040260200160405190810160405280929190818152602001828054610aac90611da7565b8015610af95780601f10610ace57610100808354040283529160200191610af9565b820191906000526020600020905b815481529060010190602001808311610adc57829003601f168201915b5050505050905081565b600260003373ffffffffffffffffffffffffffffffffffffffff1673ffffffffffffffffffffffffffffffffffffffff168152602001908152602001600020600083815260200190815260200160002060009054906101000a900460ff1615610ba1576040517f08c379a0000000000000000000000000000000000000000000000000000000008152600401610b9890611f09565b60405180910390fd5b6000805490508210610be8576040517f08c379a0000000000000000000000000000000000000000000000000000000008152600401610bdf90611e9d565b60405180910390fd5b60008281548110610bfc57610bfb611c90565b5b9060005260206000209060020201600101805490508110610c52576040517f08c379a0000000000000000000000000000000000000000000000000000000008152600401610c4990611f75565b60405180910390fd5b60008281548110610c6657610c65611c90565b5b90600052602060002090600202016001018181548110610c8957610c88611c90565b5b90600052602060002090600202016001016000815480929190610cab90611dd9565b91905055506001600260003373ffffffffffffffffffffffffffffffffffffffff1673ffffffffffffffffffffffffffffffffffffffff168152602001908152602001600020600084815260200190815260200160002060006101000a81548160ff0219169083151502179055505050565b600160009054906101000a900473ffffffffffffffffffffffffffffffffffffffff1673ffffffffffffffffffffffffffffffffffffffff163373ffffffffffffffffffffffffffffffffffffffff1614610d7757600080fd5b6000805490508210610dbe576040517f08c379a0000000000000000000000000000000000000000000000000000000008152600401610db590611c70565b60405180910390fd5b6000610dca8383611027565b905060008381548110610de057610ddf611c90565b5b9060005260206000209060020201600101805490508110610e36576040517f08c379a0000000000000000000000000000000000000000000000000000000008152600401610e2d90611fe1565b60405180910390fd5b60008190505b600160008581548110610e5257610e51611c90565b5b906000526020600020906002020160010180549050610e719190611cee565b811015610f4e5760008481548110610e8c57610e8b611c90565b5b9060005260206000209060020201600101600182610eaa9190611d22565b81548110610ebb57610eba611c90565b5b906000526020600020906002020160008581548110610edd57610edc611c90565b5b90600052602060002090600202016001018281548110610f0057610eff611c90565b5b90600052602060002090600202016000820181600001908054610f2290611da7565b610f2d9291906111de565b50600182015481600101559050508080610f4690611dd9565b915050610e3c565b5060008381548110610f6357610f62611c90565b5b9060005260206000209060020201600101805480610f8457610f83611e22565b5b600190038181906000526020600020906002020160008082016000610fa991906112ed565b600182016000905550509055505050565b6000600354421015611001576040517f08c379a0000000000000000000000000000000000000000000000000000000008152600401610ff89061204d565b60405180910390fd5b60045442106110135760009050611024565b426004546110219190611cee565b90505b90565b600080600090505b6000848154811061104357611042611c90565b5b906000526020600020906002020160010180549050811015611116578260405160200161107091906120a9565b604051602081830303815290604052805190602001206000858154811061109a57611099611c90565b5b906000526020600020906002020160010182815481106110bd576110bc611c90565b5b90600052602060002090600202016000016040516020016110de9190612154565b6040516020818303038152906040528051906020012014156111035780915050611152565b808061110e90611dd9565b91505061102f565b506040517f08c379a000000000000000000000000000000000000000000000000000000000815260040161114990611fe1565b60405180910390fd5b92915050565b82805461116490611da7565b90600052602060002090601f01602090048101928261118657600085556111cd565b82601f1061119f57805160ff19168380011785556111cd565b828001600101855582156111cd579182015b828111156111cc5782518255916020019190600101906111b1565b5b5090506111da9190611351565b5090565b8280546111ea90611da7565b90600052602060002090601f01602090048101928261120c576000855561125a565b82601f1061121d578054855561125a565b8280016001018555821561125a57600052602060002091601f016020900482015b8281111561125957825482559160010191906001019061123e565b5b5090506112679190611351565b5090565b8280548282559060005260206000209060020281019282156112dc5760005260206000209160020282015b828111156112db57828260008201816000019080546112b490611da7565b6112bf9291906111de565b5060018201548160010155505091600201919060020190611296565b5b5090506112e9919061136e565b5090565b5080546112f990611da7565b6000825580601f1061130b575061132a565b601f0160209004906000526020600020908101906113299190611351565b5b50565b508054600082556002029060005260206000209081019061134e919061136e565b50565b5b8082111561136a576000816000905550600101611352565b5090565b5b80821115611399576000808201600061138891906112ed565b60018201600090555060020161136f565b5090565b6000819050919050565b6113b08161139d565b82525050565b60006020820190506113cb60008301846113a7565b92915050565b6000604051905090565b600080fd5b600080fd5b6113ee8161139d565b81146113f957600080fd5b50565b60008135905061140b816113e5565b92915050565b600080fd5b600080fd5b6000601f19601f8301169050919050565b7f4e487b7100000000000000000000000000000000000000000000000000000000600052604160045260246000fd5b6114648261141b565b810181811067ffffffffffffffff821117156114835761148261142c565b5b80604052505050565b60006114966113d1565b90506114a2828261145b565b919050565b600067ffffffffffffffff8211156114c2576114c161142c565b5b6114cb8261141b565b9050602081019050919050565b82818337600083830152505050565b60006114fa6114f5846114a7565b61148c565b90508281526020810184848401111561151657611515611416565b5b6115218482856114d8565b509392505050565b600082601f83011261153e5761153d611411565b5b813561154e8482602086016114e7565b91505092915050565b6000806040838503121561156e5761156d6113db565b5b600061157c858286016113fc565b925050602083013567ffffffffffffffff81111561159d5761159c6113e0565b5b6115a985828601611529565b9150509250929050565b6000602082840312156115c9576115c86113db565b5b60006115d7848285016113fc565b91505092915050565b600081519050919050565b600082825260208201905092915050565b6000819050602082019050919050565b600081519050919050565b600082825260208201905092915050565b60005b8381101561164657808201518184015260208101905061162b565b83811115611655576000848401525b50505050565b60006116668261160c565b6116708185611617565b9350611680818560208601611628565b6116898161141b565b840191505092915050565b600081519050919050565b600082825260208201905092915050565b6000819050602082019050919050565b6116c98161139d565b82525050565b600060408301600083015184820360008601526116ec828261165b565b915050602083015161170160208601826116c0565b508091505092915050565b600061171883836116cf565b905092915050565b6000602082019050919050565b600061173882611694565b611742818561169f565b935083602082028501611754856116b0565b8060005b858110156117905784840389528151611771858261170c565b945061177c83611720565b925060208a01995050600181019050611758565b50829750879550505050505092915050565b600060408301600083015184820360008601526117bf828261165b565b915050602083015184820360208601526117d9828261172d565b9150508091505092915050565b60006117f283836117a2565b905092915050565b6000602082019050919050565b6000611812826115e0565b61181c81856115eb565b93508360208202850161182e856115fc565b8060005b8581101561186a578484038952815161184b85826117e6565b9450611856836117fa565b925060208a01995050600181019050611832565b50829750879550505050505092915050565b600060208201905081810360008301526118968184611807565b905092915050565b600067ffffffffffffffff8211156118b9576118b861142c565b5b602082029050602081019050919050565b600080fd5b60006118e26118dd8461189e565b61148c565b90508083825260208201905060208402830185811115611905576119046118ca565b5b835b8181101561194c57803567ffffffffffffffff81111561192a57611929611411565b5b8086016119378982611529565b85526020850194505050602081019050611907565b5050509392505050565b600082601f83011261196b5761196a611411565b5b813561197b8482602086016118cf565b91505092915050565b6000806040838503121561199b5761199a6113db565b5b600083013567ffffffffffffffff8111156119b9576119b86113e0565b5b6119c585828601611529565b925050602083013567ffffffffffffffff8111156119e6576119e56113e0565b5b6119f285828601611956565b9150509250929050565b60008115159050919050565b611a11816119fc565b82525050565b6000602082019050611a2c6000830184611a08565b92915050565b600073ffffffffffffffffffffffffffffffffffffffff82169050919050565b6000611a5d82611a32565b9050919050565b611a6d81611a52565b8114611a7857600080fd5b50565b600081359050611a8a81611a64565b92915050565b60008060408385031215611aa757611aa66113db565b5b6000611ab585828601611a7b565b9250506020611ac6858286016113fc565b9150509250929050565b600082825260208201905092915050565b6000611aec82611694565b611af68185611ad0565b935083602082028501611b08856116b0565b8060005b85811015611b445784840389528151611b25858261170c565b9450611b3083611720565b925060208a01995050600181019050611b0c565b50829750879550505050505092915050565b60006020820190508181036000830152611b708184611ae1565b905092915050565b600082825260208201905092915050565b6000611b948261160c565b611b9e8185611b78565b9350611bae818560208601611628565b611bb78161141b565b840191505092915050565b60006020820190508181036000830152611bdc8184611b89565b905092915050565b60008060408385031215611bfb57611bfa6113db565b5b6000611c09858286016113fc565b9250506020611c1a858286016113fc565b9150509250929050565b7f506f6c6c206e6f7420666f756e642e0000000000000000000000000000000000600082015250565b6000611c5a600f83611b78565b9150611c6582611c24565b602082019050919050565b60006020820190508181036000830152611c8981611c4d565b9050919050565b7f4e487b7100000000000000000000000000000000000000000000000000000000600052603260045260246000fd5b7f4e487b7100000000000000000000000000000000000000000000000000000000600052601160045260246000fd5b6000611cf98261139d565b9150611d048361139d565b925082821015611d1757611d16611cbf565b5b828203905092915050565b6000611d2d8261139d565b9150611d388361139d565b9250827fffffffffffffffffffffffffffffffffffffffffffffffffffffffffffffffff03821115611d6d57611d6c611cbf565b5b828201905092915050565b7f4e487b7100000000000000000000000000000000000000000000000000000000600052602260045260246000fd5b60006002820490506001821680611dbf57607f821691505b60208210811415611dd357611dd2611d78565b5b50919050565b6000611de48261139d565b91507fffffffffffffffffffffffffffffffffffffffffffffffffffffffffffffffff821415611e1757611e16611cbf565b5b600182019050919050565b7f4e487b7100000000000000000000000000000000000000000000000000000000600052603160045260246000fd5b7f496e76616c696420706f6c6c20696e6465782e00000000000000000000000000600082015250565b6000611e87601383611b78565b9150611e9282611e51565b602082019050919050565b60006020820190508181036000830152611eb681611e7a565b9050919050565b7f596f75206861766520616c726561647920766f7465642e000000000000000000600082015250565b6000611ef3601783611b78565b9150611efe82611ebd565b602082019050919050565b60006020820190508181036000830152611f2281611ee6565b9050919050565b7f496e76616c69642063616e64696461746520696e6465782e0000000000000000600082015250565b6000611f5f601883611b78565b9150611f6a82611f29565b602082019050919050565b60006020820190508181036000830152611f8e81611f52565b9050919050565b7f43616e646964617465206e6f7420666f756e642e000000000000000000000000600082015250565b6000611fcb601483611b78565b9150611fd682611f95565b602082019050919050565b60006020820190508181036000830152611ffa81611fbe565b9050919050565b7f566f74696e6720686173206e6f742073746172746564207965742e0000000000600082015250565b6000612037601b83611b78565b915061204282612001565b602082019050919050565b600060208201905081810360008301526120668161202a565b9050919050565b600081905092915050565b60006120838261160c565b61208d818561206d565b935061209d818560208601611628565b80840191505092915050565b60006120b58284612078565b915081905092915050565b60008190508160005260206000209050919050565b600081546120e281611da7565b6120ec818661206d565b9450600182166000811461210757600181146121185761214b565b60ff1983168652818601935061214b565b612121856120c0565b60005b8381101561214357815481890152600182019150602081019050612124565b838801955050505b50505092915050565b600061216082846120d5565b91508190509291505056fea2646970667358221220ae55fd1466c2f03fc8067a32f454d637ea0ae801d921705d2feacd0d4178acb464736f6c634300080b0033",
  "linkReferences": {},
  "deployedLinkReferences": {}
}